{
  "_format": "hh-sol-artifact-1",
  "contractName": "UniversityDegree",
  "sourceName": "contracts/UniversityDegree.sol",
  "abi": [
    {
      "inputs": [],
      "stateMutability": "nonpayable",
      "type": "constructor"
    },
    {
      "inputs": [],
      "name": "DegreeAlreadyRevoked",
      "type": "error"
    },
    {
      "inputs": [
        {
          "internalType": "address",
          "name": "sender",
          "type": "address"
        },
        {
          "internalType": "uint256",
          "name": "tokenId",
          "type": "uint256"
        },
        {
          "internalType": "address",
          "name": "owner",
          "type": "address"
        }
      ],
      "name": "ERC721IncorrectOwner",
      "type": "error"
    },
    {
      "inputs": [
        {
          "internalType": "address",
          "name": "operator",
          "type": "address"
        },
        {
          "internalType": "uint256",
          "name": "tokenId",
          "type": "uint256"
        }
      ],
      "name": "ERC721InsufficientApproval",
      "type": "error"
    },
    {
      "inputs": [
        {
          "internalType": "address",
          "name": "approver",
          "type": "address"
        }
      ],
      "name": "ERC721InvalidApprover",
      "type": "error"
    },
    {
      "inputs": [
        {
          "internalType": "address",
          "name": "operator",
          "type": "address"
        }
      ],
      "name": "ERC721InvalidOperator",
      "type": "error"
    },
    {
      "inputs": [
        {
          "internalType": "address",
          "name": "owner",
          "type": "address"
        }
      ],
      "name": "ERC721InvalidOwner",
      "type": "error"
    },
    {
      "inputs": [
        {
          "internalType": "address",
          "name": "receiver",
          "type": "address"
        }
      ],
      "name": "ERC721InvalidReceiver",
      "type": "error"
    },
    {
      "inputs": [
        {
          "internalType": "address",
          "name": "sender",
          "type": "address"
        }
      ],
      "name": "ERC721InvalidSender",
      "type": "error"
    },
    {
      "inputs": [
        {
          "internalType": "uint256",
          "name": "tokenId",
          "type": "uint256"
        }
      ],
      "name": "ERC721NonexistentToken",
      "type": "error"
    },
    {
      "inputs": [],
      "name": "InvalidDataHash",
      "type": "error"
    },
    {
      "inputs": [],
      "name": "NonTransferableToken",
      "type": "error"
    },
    {
      "inputs": [
        {
          "internalType": "address",
          "name": "owner",
          "type": "address"
        }
      ],
      "name": "OwnableInvalidOwner",
      "type": "error"
    },
    {
      "inputs": [
        {
          "internalType": "address",
          "name": "account",
          "type": "address"
        }
      ],
      "name": "OwnableUnauthorizedAccount",
      "type": "error"
    },
    {
      "anonymous": false,
      "inputs": [
        {
          "indexed": true,
          "internalType": "address",
          "name": "owner",
          "type": "address"
        },
        {
          "indexed": true,
          "internalType": "address",
          "name": "approved",
          "type": "address"
        },
        {
          "indexed": true,
          "internalType": "uint256",
          "name": "tokenId",
          "type": "uint256"
        }
      ],
      "name": "Approval",
      "type": "event"
    },
    {
      "anonymous": false,
      "inputs": [
        {
          "indexed": true,
          "internalType": "address",
          "name": "owner",
          "type": "address"
        },
        {
          "indexed": true,
          "internalType": "address",
          "name": "operator",
          "type": "address"
        },
        {
          "indexed": false,
          "internalType": "bool",
          "name": "approved",
          "type": "bool"
        }
      ],
      "name": "ApprovalForAll",
      "type": "event"
    },
    {
      "anonymous": false,
      "inputs": [
        {
          "indexed": true,
          "internalType": "uint256",
          "name": "tokenId",
          "type": "uint256"
        },
        {
          "indexed": true,
          "internalType": "address",
          "name": "graduate",
          "type": "address"
        }
      ],
      "name": "DegreeIssued",
      "type": "event"
    },
    {
      "anonymous": false,
      "inputs": [
        {
          "indexed": true,
          "internalType": "uint256",
          "name": "tokenId",
          "type": "uint256"
        }
      ],
      "name": "DegreeRevoked",
      "type": "event"
    },
    {
      "anonymous": false,
      "inputs": [
        {
          "indexed": true,
          "internalType": "address",
          "name": "previousOwner",
          "type": "address"
        },
        {
          "indexed": true,
          "internalType": "address",
          "name": "newOwner",
          "type": "address"
        }
      ],
      "name": "OwnershipTransferred",
      "type": "event"
    },
    {
      "anonymous": false,
      "inputs": [
        {
          "indexed": true,
          "internalType": "address",
          "name": "from",
          "type": "address"
        },
        {
          "indexed": true,
          "internalType": "address",
          "name": "to",
          "type": "address"
        },
        {
          "indexed": true,
          "internalType": "uint256",
          "name": "tokenId",
          "type": "uint256"
        }
      ],
      "name": "Transfer",
      "type": "event"
    },
    {
      "inputs": [
        {
          "internalType": "address",
          "name": "to",
          "type": "address"
        },
        {
          "internalType": "uint256",
          "name": "tokenId",
          "type": "uint256"
        }
      ],
      "name": "approve",
      "outputs": [],
      "stateMutability": "nonpayable",
      "type": "function"
    },
    {
      "inputs": [
        {
          "internalType": "address",
          "name": "owner",
          "type": "address"
        }
      ],
      "name": "balanceOf",
      "outputs": [
        {
          "internalType": "uint256",
          "name": "",
          "type": "uint256"
        }
      ],
      "stateMutability": "view",
      "type": "function"
    },
    {
      "inputs": [
        {
          "internalType": "uint256",
          "name": "tokenId",
          "type": "uint256"
        }
      ],
      "name": "getApproved",
      "outputs": [
        {
          "internalType": "address",
          "name": "",
          "type": "address"
        }
      ],
      "stateMutability": "view",
      "type": "function"
    },
    {
      "inputs": [
        {
          "internalType": "uint256",
          "name": "tokenId",
          "type": "uint256"
        }
      ],
      "name": "getDegreeHash",
      "outputs": [
        {
          "internalType": "bytes32",
          "name": "",
          "type": "bytes32"
        }
      ],
      "stateMutability": "view",
      "type": "function"
    },
    {
      "inputs": [
        {
          "internalType": "uint256",
          "name": "tokenId",
          "type": "uint256"
        }
      ],
      "name": "getDegreeInfo",
      "outputs": [
        {
          "internalType": "bytes32",
          "name": "",
          "type": "bytes32"
        },
        {
          "internalType": "bool",
          "name": "",
          "type": "bool"
        }
      ],
      "stateMutability": "view",
      "type": "function"
    },
    {
      "inputs": [
        {
          "internalType": "address",
          "name": "owner",
          "type": "address"
        },
        {
          "internalType": "address",
          "name": "operator",
          "type": "address"
        }
      ],
      "name": "isApprovedForAll",
      "outputs": [
        {
          "internalType": "bool",
          "name": "",
          "type": "bool"
        }
      ],
      "stateMutability": "view",
      "type": "function"
    },
    {
      "inputs": [
        {
          "internalType": "address",
          "name": "graduate",
          "type": "address"
        },
        {
          "internalType": "bytes32",
          "name": "dataHash",
          "type": "bytes32"
        }
      ],
      "name": "issueDegree",
      "outputs": [
        {
          "internalType": "uint256",
          "name": "",
          "type": "uint256"
        }
      ],
      "stateMutability": "nonpayable",
      "type": "function"
    },
    {
      "inputs": [],
      "name": "name",
      "outputs": [
        {
          "internalType": "string",
          "name": "",
          "type": "string"
        }
      ],
      "stateMutability": "view",
      "type": "function"
    },
    {
      "inputs": [],
      "name": "owner",
      "outputs": [
        {
          "internalType": "address",
          "name": "",
          "type": "address"
        }
      ],
      "stateMutability": "view",
      "type": "function"
    },
    {
      "inputs": [
        {
          "internalType": "uint256",
          "name": "tokenId",
          "type": "uint256"
        }
      ],
      "name": "ownerOf",
      "outputs": [
        {
          "internalType": "address",
          "name": "",
          "type": "address"
        }
      ],
      "stateMutability": "view",
      "type": "function"
    },
    {
      "inputs": [],
      "name": "renounceOwnership",
      "outputs": [],
      "stateMutability": "nonpayable",
      "type": "function"
    },
    {
      "inputs": [
        {
          "internalType": "uint256",
          "name": "tokenId",
          "type": "uint256"
        }
      ],
      "name": "revokeDegree",
      "outputs": [],
      "stateMutability": "nonpayable",
      "type": "function"
    },
    {
      "inputs": [
        {
          "internalType": "address",
          "name": "from",
          "type": "address"
        },
        {
          "internalType": "address",
          "name": "to",
          "type": "address"
        },
        {
          "internalType": "uint256",
          "name": "tokenId",
          "type": "uint256"
        }
      ],
      "name": "safeTransferFrom",
      "outputs": [],
      "stateMutability": "nonpayable",
      "type": "function"
    },
    {
      "inputs": [
        {
          "internalType": "address",
          "name": "from",
          "type": "address"
        },
        {
          "internalType": "address",
          "name": "to",
          "type": "address"
        },
        {
          "internalType": "uint256",
          "name": "tokenId",
          "type": "uint256"
        },
        {
          "internalType": "bytes",
          "name": "data",
          "type": "bytes"
        }
      ],
      "name": "safeTransferFrom",
      "outputs": [],
      "stateMutability": "nonpayable",
      "type": "function"
    },
    {
      "inputs": [
        {
          "internalType": "address",
          "name": "operator",
          "type": "address"
        },
        {
          "internalType": "bool",
          "name": "approved",
          "type": "bool"
        }
      ],
      "name": "setApprovalForAll",
      "outputs": [],
      "stateMutability": "nonpayable",
      "type": "function"
    },
    {
      "inputs": [
        {
          "internalType": "bytes4",
          "name": "interfaceId",
          "type": "bytes4"
        }
      ],
      "name": "supportsInterface",
      "outputs": [
        {
          "internalType": "bool",
          "name": "",
          "type": "bool"
        }
      ],
      "stateMutability": "view",
      "type": "function"
    },
    {
      "inputs": [],
      "name": "symbol",
      "outputs": [
        {
          "internalType": "string",
          "name": "",
          "type": "string"
        }
      ],
      "stateMutability": "view",
      "type": "function"
    },
    {
      "inputs": [
        {
          "internalType": "uint256",
          "name": "tokenId",
          "type": "uint256"
        }
      ],
      "name": "tokenURI",
      "outputs": [
        {
          "internalType": "string",
          "name": "",
          "type": "string"
        }
      ],
      "stateMutability": "view",
      "type": "function"
    },
    {
      "inputs": [
        {
          "internalType": "address",
          "name": "from",
          "type": "address"
        },
        {
          "internalType": "address",
          "name": "to",
          "type": "address"
        },
        {
          "internalType": "uint256",
          "name": "tokenId",
          "type": "uint256"
        }
      ],
      "name": "transferFrom",
      "outputs": [],
      "stateMutability": "nonpayable",
      "type": "function"
    },
    {
      "inputs": [
        {
          "internalType": "address",
          "name": "newOwner",
          "type": "address"
        }
      ],
      "name": "transferOwnership",
      "outputs": [],
      "stateMutability": "nonpayable",
      "type": "function"
    },
    {
      "inputs": [
        {
          "internalType": "uint256",
          "name": "tokenId",
          "type": "uint256"
        },
        {
          "internalType": "bytes32",
          "name": "dataHash",
          "type": "bytes32"
        }
      ],
      "name": "verifyDegree",
      "outputs": [
        {
          "internalType": "bool",
          "name": "",
          "type": "bool"
        }
      ],
      "stateMutability": "view",
      "type": "function"
    }
  ],
  "bytecode": "0x60806040523480156200001157600080fd5b50336040518060400160405280601081526020017f556e6976657273697479446567726565000000000000000000000000000000008152506040518060400160405280600481526020017f5544454700000000000000000000000000000000000000000000000000000000815250816000908162000090919062000472565b508060019081620000a2919062000472565b505050600073ffffffffffffffffffffffffffffffffffffffff168173ffffffffffffffffffffffffffffffffffffffff16036200011a5760006040517f1e4fbdf70000000000000000000000000000000000000000000000000000000081526004016200011191906200059e565b60405180910390fd5b6200012b816200013260201b60201c565b50620005bb565b6000600660009054906101000a900473ffffffffffffffffffffffffffffffffffffffff16905081600660006101000a81548173ffffffffffffffffffffffffffffffffffffffff021916908373ffffffffffffffffffffffffffffffffffffffff1602179055508173ffffffffffffffffffffffffffffffffffffffff168173ffffffffffffffffffffffffffffffffffffffff167f8be0079c531659141344cd1fd0a4f28419497f9722a3daafe3b4186f6b6457e060405160405180910390a35050565b600081519050919050565b7f4e487b7100000000000000000000000000000000000000000000000000000000600052604160045260246000fd5b7f4e487b7100000000000000000000000000000000000000000000000000000000600052602260045260246000fd5b600060028204905060018216806200027a57607f821691505b60208210810362000290576200028f62000232565b5b50919050565b60008190508160005260206000209050919050565b60006020601f8301049050919050565b600082821b905092915050565b600060088302620002fa7fffffffffffffffffffffffffffffffffffffffffffffffffffffffffffffffff82620002bb565b620003068683620002bb565b95508019841693508086168417925050509392505050565b6000819050919050565b6000819050919050565b6000620003536200034d62000347846200031e565b62000328565b6200031e565b9050919050565b6000819050919050565b6200036f8362000332565b620003876200037e826200035a565b848454620002c8565b825550505050565b600090565b6200039e6200038f565b620003ab81848462000364565b505050565b5b81811015620003d357620003c760008262000394565b600181019050620003b1565b5050565b601f8211156200042257620003ec8162000296565b620003f784620002ab565b8101602085101562000407578190505b6200041f6200041685620002ab565b830182620003b0565b50505b505050565b600082821c905092915050565b6000620004476000198460080262000427565b1980831691505092915050565b600062000462838362000434565b9150826002028217905092915050565b6200047d82620001f8565b67ffffffffffffffff81111562000499576200049862000203565b5b620004a5825462000261565b620004b2828285620003d7565b600060209050601f831160018114620004ea5760008415620004d5578287015190505b620004e1858262000454565b86555062000551565b601f198416620004fa8662000296565b60005b828110156200052457848901518255600182019150602085019450602081019050620004fd565b8683101562000544578489015162000540601f89168262000434565b8355505b6001600288020188555050505b505050505050565b600073ffffffffffffffffffffffffffffffffffffffff82169050919050565b6000620005868262000559565b9050919050565b620005988162000579565b82525050565b6000602082019050620005b560008301846200058d565b92915050565b61275980620005cb6000396000f3fe608060405234801561001057600080fd5b50600436106101375760003560e01c8063715018a6116100b8578063a22cb4651161007c578063a22cb46514610361578063b88d4fde1461037d578063c87b56dd14610399578063d19ab368146103c9578063e985e9c5146103f9578063f2fde38b1461042957610137565b8063715018a6146102bb57806388ba5da3146102c55780638da5cb5b146102f557806395d89b411461031357806399c2b9ca1461033157610137565b806337e5c37d116100ff57806337e5c37d146101f257806342842e0e146102235780634851cea51461023f5780636352211e1461025b57806370a082311461028b57610137565b806301ffc9a71461013c57806306fdde031461016c578063081812fc1461018a578063095ea7b3146101ba57806323b872dd146101d6575b600080fd5b61015660048036038101906101519190611db7565b610445565b6040516101639190611dff565b60405180910390f35b610174610527565b6040516101819190611eaa565b60405180910390f35b6101a4600480360381019061019f9190611f02565b6105b9565b6040516101b19190611f70565b60405180910390f35b6101d460048036038101906101cf9190611fb7565b6105d5565b005b6101f060048036038101906101eb9190611ff7565b610607565b005b61020c60048036038101906102079190611f02565b610709565b60405161021a929190612063565b60405180910390f35b61023d60048036038101906102389190611ff7565b6107de565b005b61025960048036038101906102549190611f02565b6107fe565b005b61027560048036038101906102709190611f02565b610937565b6040516102829190611f70565b60405180910390f35b6102a560048036038101906102a0919061208c565b610949565b6040516102b291906120c8565b60405180910390f35b6102c3610a03565b005b6102df60048036038101906102da919061210f565b610a17565b6040516102ec91906120c8565b60405180910390f35b6102fd610b28565b60405161030a9190611f70565b60405180910390f35b61031b610b52565b6040516103289190611eaa565b60405180910390f35b61034b60048036038101906103469190611f02565b610be4565b604051610358919061214f565b60405180910390f35b61037b60048036038101906103769190612196565b610c7a565b005b6103976004803603810190610392919061230b565b610cac565b005b6103b360048036038101906103ae9190611f02565b610cd1565b6040516103c09190611eaa565b60405180910390f35b6103e360048036038101906103de919061238e565b610d3a565b6040516103f09190611dff565b60405180910390f35b610413600480360381019061040e91906123ce565b610e17565b6040516104209190611dff565b60405180910390f35b610443600480360381019061043e919061208c565b610eab565b005b60007f80ac58cd000000000000000000000000000000000000000000000000000000007bffffffffffffffffffffffffffffffffffffffffffffffffffffffff1916827bffffffffffffffffffffffffffffffffffffffffffffffffffffffff1916148061051057507f5b5e139f000000000000000000000000000000000000000000000000000000007bffffffffffffffffffffffffffffffffffffffffffffffffffffffff1916827bffffffffffffffffffffffffffffffffffffffffffffffffffffffff1916145b80610520575061051f82610f31565b5b9050919050565b6060600080546105369061243d565b80601f01602080910402602001604051908101604052809291908181526020018280546105629061243d565b80156105af5780601f10610584576101008083540402835291602001916105af565b820191906000526020600020905b81548152906001019060200180831161059257829003601f168201915b5050505050905090565b60006105c482610f9b565b506105ce82611023565b9050919050565b6040517f30d4e75d00000000000000000000000000000000000000000000000000000000815260040160405180910390fd5b600073ffffffffffffffffffffffffffffffffffffffff168273ffffffffffffffffffffffffffffffffffffffff16036106795760006040517f64a0ae920000000000000000000000000000000000000000000000000000000081526004016106709190611f70565b60405180910390fd5b600061068d8383610688611060565b611068565b90508373ffffffffffffffffffffffffffffffffffffffff168173ffffffffffffffffffffffffffffffffffffffff1614610703578382826040517f64283d7b0000000000000000000000000000000000000000000000000000000081526004016106fa9392919061246e565b60405180910390fd5b50505050565b600080600073ffffffffffffffffffffffffffffffffffffffff1661072d84611139565b73ffffffffffffffffffffffffffffffffffffffff1603610783576040517f08c379a000000000000000000000000000000000000000000000000000000000815260040161077a906124f1565b60405180910390fd5b600060076000858152602001908152602001600020604051806040016040529081600082015481526020016001820160009054906101000a900460ff1615151515815250509050806000015181602001519250925050915091565b6107f983838360405180602001604052806000815250610cac565b505050565b610806611176565b600073ffffffffffffffffffffffffffffffffffffffff1661082782611139565b73ffffffffffffffffffffffffffffffffffffffff160361087d576040517f08c379a0000000000000000000000000000000000000000000000000000000008152600401610874906124f1565b60405180910390fd5b6007600082815260200190815260200160002060010160009054906101000a900460ff16156108d8576040517f7440c60e00000000000000000000000000000000000000000000000000000000815260040160405180910390fd5b60016007600083815260200190815260200160002060010160006101000a81548160ff021916908315150217905550807facb0372734c1196935f3073b27068197ff499d0baafabf7cefe81d58266d7b6f60405160405180910390a250565b600061094282610f9b565b9050919050565b60008073ffffffffffffffffffffffffffffffffffffffff168273ffffffffffffffffffffffffffffffffffffffff16036109bc5760006040517f89c62b640000000000000000000000000000000000000000000000000000000081526004016109b39190611f70565b60405180910390fd5b600360008373ffffffffffffffffffffffffffffffffffffffff1673ffffffffffffffffffffffffffffffffffffffff168152602001908152602001600020549050919050565b610a0b611176565b610a1560006111fd565b565b6000610a21611176565b6000801b8203610a5d576040517fee3e17dc00000000000000000000000000000000000000000000000000000000815260040160405180910390fd5b600060086000815480929190610a7290612540565b919050559050610a8284826112c3565b604051806040016040528084815260200160001515815250600760008381526020019081526020016000206000820151816000015560208201518160010160006101000a81548160ff0219169083151502179055509050508373ffffffffffffffffffffffffffffffffffffffff16817f536bd0420df3ccc3bf0a6ad90e825af75d63258504988bb810a9b0411117bf1d60405160405180910390a38091505092915050565b6000600660009054906101000a900473ffffffffffffffffffffffffffffffffffffffff16905090565b606060018054610b619061243d565b80601f0160208091040260200160405190810160405280929190818152602001828054610b8d9061243d565b8015610bda5780601f10610baf57610100808354040283529160200191610bda565b820191906000526020600020905b815481529060010190602001808311610bbd57829003601f168201915b5050505050905090565b60008073ffffffffffffffffffffffffffffffffffffffff16610c0683611139565b73ffffffffffffffffffffffffffffffffffffffff1603610c5c576040517f08c379a0000000000000000000000000000000000000000000000000000000008152600401610c53906124f1565b60405180910390fd5b60076000838152602001908152602001600020600001549050919050565b6040517f30d4e75d00000000000000000000000000000000000000000000000000000000815260040160405180910390fd5b610cb7848484610607565b610ccb610cc2611060565b858585856112e1565b50505050565b6060610cdc82610f9b565b506000610ce7611492565b90506000815111610d075760405180602001604052806000815250610d32565b80610d11846114a9565b604051602001610d229291906125c4565b6040516020818303038152906040525b915050919050565b60008073ffffffffffffffffffffffffffffffffffffffff16610d5c84611139565b73ffffffffffffffffffffffffffffffffffffffff1603610db2576040517f08c379a0000000000000000000000000000000000000000000000000000000008152600401610da9906124f1565b60405180910390fd5b600060076000858152602001908152602001600020604051806040016040529081600082015481526020016001820160009054906101000a900460ff1615151515815250509050828160000151148015610e0e57508060200151155b91505092915050565b6000600560008473ffffffffffffffffffffffffffffffffffffffff1673ffffffffffffffffffffffffffffffffffffffff16815260200190815260200160002060008373ffffffffffffffffffffffffffffffffffffffff1673ffffffffffffffffffffffffffffffffffffffff16815260200190815260200160002060009054906101000a900460ff16905092915050565b610eb3611176565b600073ffffffffffffffffffffffffffffffffffffffff168173ffffffffffffffffffffffffffffffffffffffff1603610f255760006040517f1e4fbdf7000000000000000000000000000000000000000000000000000000008152600401610f1c9190611f70565b60405180910390fd5b610f2e816111fd565b50565b60007f01ffc9a7000000000000000000000000000000000000000000000000000000007bffffffffffffffffffffffffffffffffffffffffffffffffffffffff1916827bffffffffffffffffffffffffffffffffffffffffffffffffffffffff1916149050919050565b600080610fa783611139565b9050600073ffffffffffffffffffffffffffffffffffffffff168173ffffffffffffffffffffffffffffffffffffffff160361101a57826040517f7e27328900000000000000000000000000000000000000000000000000000000815260040161101191906120c8565b60405180910390fd5b80915050919050565b60006004600083815260200190815260200160002060009054906101000a900473ffffffffffffffffffffffffffffffffffffffff169050919050565b600033905090565b60008061107484611139565b9050600073ffffffffffffffffffffffffffffffffffffffff168173ffffffffffffffffffffffffffffffffffffffff16036110bd576110b5858585611577565b915050611132565b600073ffffffffffffffffffffffffffffffffffffffff168573ffffffffffffffffffffffffffffffffffffffff1614611123576040517f30d4e75d00000000000000000000000000000000000000000000000000000000815260040160405180910390fd5b61112e858585611577565b9150505b9392505050565b60006002600083815260200190815260200160002060009054906101000a900473ffffffffffffffffffffffffffffffffffffffff169050919050565b61117e611060565b73ffffffffffffffffffffffffffffffffffffffff1661119c610b28565b73ffffffffffffffffffffffffffffffffffffffff16146111fb576111bf611060565b6040517f118cdaa70000000000000000000000000000000000000000000000000000000081526004016111f29190611f70565b60405180910390fd5b565b6000600660009054906101000a900473ffffffffffffffffffffffffffffffffffffffff16905081600660006101000a81548173ffffffffffffffffffffffffffffffffffffffff021916908373ffffffffffffffffffffffffffffffffffffffff1602179055508173ffffffffffffffffffffffffffffffffffffffff168173ffffffffffffffffffffffffffffffffffffffff167f8be0079c531659141344cd1fd0a4f28419497f9722a3daafe3b4186f6b6457e060405160405180910390a35050565b6112dd828260405180602001604052806000815250611791565b5050565b60008373ffffffffffffffffffffffffffffffffffffffff163b111561148b578273ffffffffffffffffffffffffffffffffffffffff1663150b7a02868685856040518563ffffffff1660e01b8152600401611340949392919061263d565b6020604051808303816000875af192505050801561137c57506040513d601f19601f82011682018060405250810190611379919061269e565b60015b611400573d80600081146113ac576040519150601f19603f3d011682016040523d82523d6000602084013e6113b1565b606091505b5060008151036113f857836040517f64a0ae920000000000000000000000000000000000000000000000000000000081526004016113ef9190611f70565b60405180910390fd5b805181602001fd5b63150b7a0260e01b7bffffffffffffffffffffffffffffffffffffffffffffffffffffffff1916817bffffffffffffffffffffffffffffffffffffffffffffffffffffffff19161461148957836040517f64a0ae920000000000000000000000000000000000000000000000000000000081526004016114809190611f70565b60405180910390fd5b505b5050505050565b606060405180602001604052806000815250905090565b6060600060016114b8846117b5565b01905060008167ffffffffffffffff8111156114d7576114d66121e0565b5b6040519080825280601f01601f1916602001820160405280156115095781602001600182028036833780820191505090505b509050600082602001820190505b60011561156c578080600190039150507f3031323334353637383961626364656600000000000000000000000000000000600a86061a8153600a85816115605761155f6126cb565b5b04945060008503611517575b819350505050919050565b60008061158384611139565b9050600073ffffffffffffffffffffffffffffffffffffffff168373ffffffffffffffffffffffffffffffffffffffff16146115c5576115c4818486611908565b5b600073ffffffffffffffffffffffffffffffffffffffff168173ffffffffffffffffffffffffffffffffffffffff1614611656576116076000856000806119cc565b6001600360008373ffffffffffffffffffffffffffffffffffffffff1673ffffffffffffffffffffffffffffffffffffffff168152602001908152602001600020600082825403925050819055505b600073ffffffffffffffffffffffffffffffffffffffff168573ffffffffffffffffffffffffffffffffffffffff16146116d9576001600360008773ffffffffffffffffffffffffffffffffffffffff1673ffffffffffffffffffffffffffffffffffffffff168152602001908152602001600020600082825401925050819055505b846002600086815260200190815260200160002060006101000a81548173ffffffffffffffffffffffffffffffffffffffff021916908373ffffffffffffffffffffffffffffffffffffffff160217905550838573ffffffffffffffffffffffffffffffffffffffff168273ffffffffffffffffffffffffffffffffffffffff167fddf252ad1be2c89b69c2b068fc378daa952ba7f163c4a11628f55a4df523b3ef60405160405180910390a4809150509392505050565b61179b8383611b91565b6117b06117a6611060565b60008585856112e1565b505050565b600080600090507a184f03e93ff9f4daa797ed6e38ed64bf6a1f0100000000000000008310611813577a184f03e93ff9f4daa797ed6e38ed64bf6a1f0100000000000000008381611809576118086126cb565b5b0492506040810190505b6d04ee2d6d415b85acef81000000008310611850576d04ee2d6d415b85acef81000000008381611846576118456126cb565b5b0492506020810190505b662386f26fc10000831061187f57662386f26fc100008381611875576118746126cb565b5b0492506010810190505b6305f5e10083106118a8576305f5e100838161189e5761189d6126cb565b5b0492506008810190505b61271083106118cd5761271083816118c3576118c26126cb565b5b0492506004810190505b606483106118f057606483816118e6576118e56126cb565b5b0492506002810190505b600a83106118ff576001810190505b80915050919050565b611913838383611c8a565b6119c757600073ffffffffffffffffffffffffffffffffffffffff168373ffffffffffffffffffffffffffffffffffffffff160361198857806040517f7e27328900000000000000000000000000000000000000000000000000000000815260040161197f91906120c8565b60405180910390fd5b81816040517f177e802f0000000000000000000000000000000000000000000000000000000081526004016119be9291906126fa565b60405180910390fd5b505050565b8080611a055750600073ffffffffffffffffffffffffffffffffffffffff168273ffffffffffffffffffffffffffffffffffffffff1614155b15611b39576000611a1584610f9b565b9050600073ffffffffffffffffffffffffffffffffffffffff168373ffffffffffffffffffffffffffffffffffffffff1614158015611a8057508273ffffffffffffffffffffffffffffffffffffffff168173ffffffffffffffffffffffffffffffffffffffff1614155b8015611a935750611a918184610e17565b155b15611ad557826040517fa9fbf51f000000000000000000000000000000000000000000000000000000008152600401611acc9190611f70565b60405180910390fd5b8115611b3757838573ffffffffffffffffffffffffffffffffffffffff168273ffffffffffffffffffffffffffffffffffffffff167f8c5be1e5ebec7d5bd14f71427d1e84f3dd0314c0f7b2291e5b200ac8c7c3b92560405160405180910390a45b505b836004600085815260200190815260200160002060006101000a81548173ffffffffffffffffffffffffffffffffffffffff021916908373ffffffffffffffffffffffffffffffffffffffff16021790555050505050565b600073ffffffffffffffffffffffffffffffffffffffff168273ffffffffffffffffffffffffffffffffffffffff1603611c035760006040517f64a0ae92000000000000000000000000000000000000000000000000000000008152600401611bfa9190611f70565b60405180910390fd5b6000611c1183836000611068565b9050600073ffffffffffffffffffffffffffffffffffffffff168173ffffffffffffffffffffffffffffffffffffffff1614611c855760006040517f73c6ac6e000000000000000000000000000000000000000000000000000000008152600401611c7c9190611f70565b60405180910390fd5b505050565b60008073ffffffffffffffffffffffffffffffffffffffff168373ffffffffffffffffffffffffffffffffffffffff1614158015611d4257508273ffffffffffffffffffffffffffffffffffffffff168473ffffffffffffffffffffffffffffffffffffffff161480611d035750611d028484610e17565b5b80611d4157508273ffffffffffffffffffffffffffffffffffffffff16611d2983611023565b73ffffffffffffffffffffffffffffffffffffffff16145b5b90509392505050565b6000604051905090565b600080fd5b600080fd5b60007fffffffff0000000000000000000000000000000000000000000000000000000082169050919050565b611d9481611d5f565b8114611d9f57600080fd5b50565b600081359050611db181611d8b565b92915050565b600060208284031215611dcd57611dcc611d55565b5b6000611ddb84828501611da2565b91505092915050565b60008115159050919050565b611df981611de4565b82525050565b6000602082019050611e146000830184611df0565b92915050565b600081519050919050565b600082825260208201905092915050565b60005b83811015611e54578082015181840152602081019050611e39565b60008484015250505050565b6000601f19601f8301169050919050565b6000611e7c82611e1a565b611e868185611e25565b9350611e96818560208601611e36565b611e9f81611e60565b840191505092915050565b60006020820190508181036000830152611ec48184611e71565b905092915050565b6000819050919050565b611edf81611ecc565b8114611eea57600080fd5b50565b600081359050611efc81611ed6565b92915050565b600060208284031215611f1857611f17611d55565b5b6000611f2684828501611eed565b91505092915050565b600073ffffffffffffffffffffffffffffffffffffffff82169050919050565b6000611f5a82611f2f565b9050919050565b611f6a81611f4f565b82525050565b6000602082019050611f856000830184611f61565b92915050565b611f9481611f4f565b8114611f9f57600080fd5b50565b600081359050611fb181611f8b565b92915050565b60008060408385031215611fce57611fcd611d55565b5b6000611fdc85828601611fa2565b9250506020611fed85828601611eed565b9150509250929050565b6000806000606084860312156120105761200f611d55565b5b600061201e86828701611fa2565b935050602061202f86828701611fa2565b925050604061204086828701611eed565b9150509250925092565b6000819050919050565b61205d8161204a565b82525050565b60006040820190506120786000830185612054565b6120856020830184611df0565b9392505050565b6000602082840312156120a2576120a1611d55565b5b60006120b084828501611fa2565b91505092915050565b6120c281611ecc565b82525050565b60006020820190506120dd60008301846120b9565b92915050565b6120ec8161204a565b81146120f757600080fd5b50565b600081359050612109816120e3565b92915050565b6000806040838503121561212657612125611d55565b5b600061213485828601611fa2565b9250506020612145858286016120fa565b9150509250929050565b60006020820190506121646000830184612054565b92915050565b61217381611de4565b811461217e57600080fd5b50565b6000813590506121908161216a565b92915050565b600080604083850312156121ad576121ac611d55565b5b60006121bb85828601611fa2565b92505060206121cc85828601612181565b9150509250929050565b600080fd5b600080fd5b7f4e487b7100000000000000000000000000000000000000000000000000000000600052604160045260246000fd5b61221882611e60565b810181811067ffffffffffffffff82111715612237576122366121e0565b5b80604052505050565b600061224a611d4b565b9050612256828261220f565b919050565b600067ffffffffffffffff821115612276576122756121e0565b5b61227f82611e60565b9050602081019050919050565b82818337600083830152505050565b60006122ae6122a98461225b565b612240565b9050828152602081018484840111156122ca576122c96121db565b5b6122d584828561228c565b509392505050565b600082601f8301126122f2576122f16121d6565b5b813561230284826020860161229b565b91505092915050565b6000806000806080858703121561232557612324611d55565b5b600061233387828801611fa2565b945050602061234487828801611fa2565b935050604061235587828801611eed565b925050606085013567ffffffffffffffff81111561237657612375611d5a565b5b612382878288016122dd565b91505092959194509250565b600080604083850312156123a5576123a4611d55565b5b60006123b385828601611eed565b92505060206123c4858286016120fa565b9150509250929050565b600080604083850312156123e5576123e4611d55565b5b60006123f385828601611fa2565b925050602061240485828601611fa2565b9150509250929050565b7f4e487b7100000000000000000000000000000000000000000000000000000000600052602260045260246000fd5b6000600282049050600182168061245557607f821691505b6020821081036124685761246761240e565b5b50919050565b60006060820190506124836000830186611f61565b61249060208301856120b9565b61249d6040830184611f61565b949350505050565b7f4552433732314e6f6e6578697374656e74546f6b656e00000000000000000000600082015250565b60006124db601683611e25565b91506124e6826124a5565b602082019050919050565b6000602082019050818103600083015261250a816124ce565b9050919050565b7f4e487b7100000000000000000000000000000000000000000000000000000000600052601160045260246000fd5b600061254b82611ecc565b91507fffffffffffffffffffffffffffffffffffffffffffffffffffffffffffffffff820361257d5761257c612511565b5b600182019050919050565b600081905092915050565b600061259e82611e1a565b6125a88185612588565b93506125b8818560208601611e36565b80840191505092915050565b60006125d08285612593565b91506125dc8284612593565b91508190509392505050565b600081519050919050565b600082825260208201905092915050565b600061260f826125e8565b61261981856125f3565b9350612629818560208601611e36565b61263281611e60565b840191505092915050565b60006080820190506126526000830187611f61565b61265f6020830186611f61565b61266c60408301856120b9565b818103606083015261267e8184612604565b905095945050505050565b60008151905061269881611d8b565b92915050565b6000602082840312156126b4576126b3611d55565b5b60006126c284828501612689565b91505092915050565b7f4e487b7100000000000000000000000000000000000000000000000000000000600052601260045260246000fd5b600060408201905061270f6000830185611f61565b61271c60208301846120b9565b939250505056fea264697066735822122094eb259c603c96fc627fd479f35538398f033bdc0d19e610a77a571199db09ff64736f6c63430008140033",
  "linkReferences": {},
  "deployedLinkReferences": {}
}